{
  "contractName": "Election",
  "abi": [
    {
      "constant": true,
      "inputs": [],
      "name": "carCount",
      "outputs": [
        {
          "name": "",
          "type": "uint256"
        }
      ],
      "payable": false,
      "stateMutability": "view",
      "type": "function"
    },
    {
      "constant": true,
      "inputs": [
        {
          "name": "",
          "type": "uint256"
        }
      ],
      "name": "cars",
      "outputs": [
        {
          "name": "id",
          "type": "uint256"
        },
        {
          "name": "loaixe",
          "type": "string"
        },
        {
          "name": "biensoxe",
          "type": "string"
        },
        {
          "name": "hangmucbaohiem",
          "type": "string"
        },
        {
          "name": "giatien",
          "type": "uint256"
        },
        {
          "name": "voteCount",
          "type": "uint256"
        }
      ],
      "payable": false,
      "stateMutability": "view",
      "type": "function"
    },
    {
      "inputs": [],
      "payable": false,
      "stateMutability": "nonpayable",
      "type": "constructor"
    },
    {
      "anonymous": false,
      "inputs": [
        {
          "indexed": false,
          "name": "id",
          "type": "uint256"
        },
        {
          "indexed": false,
          "name": "loaixe",
          "type": "string"
        },
        {
          "indexed": false,
          "name": "biensoxe",
          "type": "string"
        },
        {
          "indexed": false,
          "name": "hangmucbaohiem",
          "type": "string"
        },
        {
          "indexed": false,
          "name": "giatien",
          "type": "uint256"
        },
        {
          "indexed": false,
          "name": "voteCount",
          "type": "uint256"
        }
      ],
      "name": "carClaim",
      "type": "event"
    },
    {
      "constant": false,
      "inputs": [
        {
          "name": "_loaixe",
          "type": "string"
        },
        {
          "name": "_biensoxe",
          "type": "string"
        },
        {
          "name": "_hangmucbaohiem",
          "type": "string"
        },
        {
          "name": "_giatien",
          "type": "uint256"
        }
      ],
      "name": "addCar",
      "outputs": [],
      "payable": false,
      "stateMutability": "nonpayable",
      "type": "function"
    }
  ],
  "bytecode": "0x60806040526000805534801561001457600080fd5b506100d16040805190810160405280600581526020017f4d617a64610000000000000000000000000000000000000000000000000000008152506040805190810160405280600a81526020017f333042325f3131313131000000000000000000000000000000000000000000008152506040805190810160405280600681526020017f5468616e586500000000000000000000000000000000000000000000000000008152506104576100d6640100000000026401000000009004565b6103e0565b600080815480929190600101919050555060c06040519081016040528060005481526020018581526020018481526020018381526020018281526020016000815250600160008054815260200190815260200160002060008201518160000155602082015181600101908051906020019061015292919061033b565b50604082015181600201908051906020019061016f92919061033b565b50606082015181600301908051906020019061018c92919061033b565b506080820151816004015560a082015181600501559050507f37b1aefaa8aebd2b4fd9d5c89111be718d4942071bfe29a30972b360fe721e2c60005485858585600060405180878152602001806020018060200180602001868152602001858152602001848103845289818151815260200191508051906020019080838360005b8381101561022857808201518184015260208101905061020d565b50505050905090810190601f1680156102555780820380516001836020036101000a031916815260200191505b50848103835288818151815260200191508051906020019080838360005b8381101561028e578082015181840152602081019050610273565b50505050905090810190601f1680156102bb5780820380516001836020036101000a031916815260200191505b50848103825287818151815260200191508051906020019080838360005b838110156102f45780820151818401526020810190506102d9565b50505050905090810190601f1680156103215780820380516001836020036101000a031916815260200191505b50995050505050505050505060405180910390a150505050565b828054600181600116156101000203166002900490600052602060002090601f016020900481019282601f1061037c57805160ff19168380011785556103aa565b828001600101855582156103aa579182015b828111156103a957825182559160200191906001019061038e565b5b5090506103b791906103bb565b5090565b6103dd91905b808211156103d95760008160009055506001016103c1565b5090565b90565b61085980620003f06000396000f300608060405260043610610057576000357c0100000000000000000000000000000000000000000000000000000000900463ffffffff168063297a1f561461005c578063d2d50bd814610087578063f7746e3614610186575b600080fd5b34801561006857600080fd5b50610071610319565b6040518082815260200191505060405180910390f35b34801561009357600080fd5b50610184600480360381019080803590602001908201803590602001908080601f0160208091040260200160405190810160405280939291908181526020018383808284378201915050505050509192919290803590602001908201803590602001908080601f0160208091040260200160405190810160405280939291908181526020018383808284378201915050505050509192919290803590602001908201803590602001908080601f01602080910402602001604051908101604052809392919081815260200183838082843782019150505050505091929192908035906020019092919050505061031f565b005b34801561019257600080fd5b506101b160048036038101908080359060200190929190505050610584565b60405180878152602001806020018060200180602001868152602001858152602001848103845289818151815260200191508051906020019080838360005b8381101561020b5780820151818401526020810190506101f0565b50505050905090810190601f1680156102385780820380516001836020036101000a031916815260200191505b50848103835288818151815260200191508051906020019080838360005b83811015610271578082015181840152602081019050610256565b50505050905090810190601f16801561029e5780820380516001836020036101000a031916815260200191505b50848103825287818151815260200191508051906020019080838360005b838110156102d75780820151818401526020810190506102bc565b50505050905090810190601f1680156103045780820380516001836020036101000a031916815260200191505b50995050505050505050505060405180910390f35b60005481565b600080815480929190600101919050555060c06040519081016040528060005481526020018581526020018481526020018381526020018281526020016000815250600160008054815260200190815260200160002060008201518160000155602082015181600101908051906020019061039b929190610788565b5060408201518160020190805190602001906103b8929190610788565b5060608201518160030190805190602001906103d5929190610788565b506080820151816004015560a082015181600501559050507f37b1aefaa8aebd2b4fd9d5c89111be718d4942071bfe29a30972b360fe721e2c60005485858585600060405180878152602001806020018060200180602001868152602001858152602001848103845289818151815260200191508051906020019080838360005b83811015610471578082015181840152602081019050610456565b50505050905090810190601f16801561049e5780820380516001836020036101000a031916815260200191505b50848103835288818151815260200191508051906020019080838360005b838110156104d75780820151818401526020810190506104bc565b50505050905090810190601f1680156105045780820380516001836020036101000a031916815260200191505b50848103825287818151815260200191508051906020019080838360005b8381101561053d578082015181840152602081019050610522565b50505050905090810190601f16801561056a5780820380516001836020036101000a031916815260200191505b50995050505050505050505060405180910390a150505050565b6001602052806000526040600020600091509050806000015490806001018054600181600116156101000203166002900480601f0160208091040260200160405190810160405280929190818152602001828054600181600116156101000203166002900480156106365780601f1061060b57610100808354040283529160200191610636565b820191906000526020600020905b81548152906001019060200180831161061957829003601f168201915b505050505090806002018054600181600116156101000203166002900480601f0160208091040260200160405190810160405280929190818152602001828054600181600116156101000203166002900480156106d45780601f106106a9576101008083540402835291602001916106d4565b820191906000526020600020905b8154815290600101906020018083116106b757829003601f168201915b505050505090806003018054600181600116156101000203166002900480601f0160208091040260200160405190810160405280929190818152602001828054600181600116156101000203166002900480156107725780601f1061074757610100808354040283529160200191610772565b820191906000526020600020905b81548152906001019060200180831161075557829003601f168201915b5050505050908060040154908060050154905086565b828054600181600116156101000203166002900490600052602060002090601f016020900481019282601f106107c957805160ff19168380011785556107f7565b828001600101855582156107f7579182015b828111156107f65782518255916020019190600101906107db565b5b5090506108049190610808565b5090565b61082a91905b8082111561082657600081600090555060010161080e565b5090565b905600a165627a7a723058201988f1aae1dc10e7702f1fa0594c9c700f5419fee70f97a4add9a19b1868d5780029",
  "source": "pragma solidity 0.4.25;\r\n\r\ncontract Election {\r\n     // Store Candidates Count\r\n    uint public carCount =0;\r\n    // Model a Candidate\r\n    struct InsurranceContract {\r\n        uint id;\r\n        string loaixe;\r\n        string biensoxe;\r\n        string hangmucbaohiem;\r\n        uint  giatien;\r\n        uint voteCount;\r\n    }\r\n  \r\n\r\n    // // Store accounts that have voted\r\n    // mapping(address => bool) public voters;\r\n    // Store Candidates\r\n    // Fetch Candidate\r\n    mapping(uint => InsurranceContract ) public cars;\r\n   \r\n\r\n   event carClaim(\r\n        uint id,\r\n        string loaixe,\r\n        string biensoxe,\r\n        string hangmucbaohiem,\r\n        uint  giatien,\r\n        uint voteCount\r\n  );\r\n    constructor () public {\r\n        addCar(\"Mazda\",\"30B2_11111\",\"ThanXe\",1111);\r\n\r\n    }\r\n\r\n    function addCar(string _loaixe, string _biensoxe,string _hangmucbaohiem,uint _giatien) public {\r\n        carCount ++;\r\n        cars[carCount] = InsurranceContract(carCount, _loaixe,_biensoxe,_hangmucbaohiem,_giatien, 0);\r\n        emit carClaim(carCount, _loaixe,_biensoxe,_hangmucbaohiem,_giatien, 0);\r\n\r\n    }\r\n \r\n//    function vote (uint _candidateId) public {\r\n//         // require that they haven't voted before\r\n//         require(!voters[msg.sender]);\r\n\r\n//         // require a valid candidate\r\n//         require(_candidateId > 0 && _candidateId <= candidatesCount);\r\n\r\n//         // record that voter has voted\r\n//         voters[msg.sender] = true;\r\n\r\n//         // update candidate vote Count\r\n//         candidates[_candidateId].voteCount ++;\r\n\r\n//         // trigger voted event\r\n//         emit votedEvent(_candidateId);\r\n//     }\r\n    \r\n}",
  "sourcePath": "I:\\BlockChain\\Solidity\\D_appBy_DU\\election-2019_update\\contracts\\Election.sol",
  "compiler": {
    "name": "solc",
    "version": "0.4.25+commit.59dbf8f1.Emscripten.clang"
  },
  "schemaVersion": "3.4.8",
  "updatedAt": "2022-08-31T07:46:57.968Z",
  "networkType": "ethereum",
  "devdoc": {
    "methods": {}
  },
  "userdoc": {
    "methods": {}
  }
}